{
  "_format": "hh-sol-artifact-1",
  "contractName": "BankLess",
  "sourceName": "contracts/BankLess.sol",
  "abi": [
    {
      "anonymous": false,
      "inputs": [
        {
          "indexed": false,
          "internalType": "address",
          "name": "user",
          "type": "address"
        },
        {
          "indexed": false,
          "internalType": "address",
          "name": "token",
          "type": "address"
        },
        {
          "indexed": false,
          "internalType": "uint256",
          "name": "amount",
          "type": "uint256"
        },
        {
          "indexed": false,
          "internalType": "uint256",
          "name": "transId",
          "type": "uint256"
        }
      ],
      "name": "DepositToken",
      "type": "event"
    },
    {
      "anonymous": false,
      "inputs": [
        {
          "indexed": false,
          "internalType": "address",
          "name": "sender",
          "type": "address"
        },
        {
          "indexed": false,
          "internalType": "uint256",
          "name": "amount",
          "type": "uint256"
        }
      ],
      "name": "Deposited",
      "type": "event"
    },
    {
      "anonymous": false,
      "inputs": [
        {
          "indexed": false,
          "internalType": "uint8",
          "name": "version",
          "type": "uint8"
        }
      ],
      "name": "Initialized",
      "type": "event"
    },
    {
      "anonymous": false,
      "inputs": [
        {
          "indexed": false,
          "internalType": "uint256",
          "name": "id",
          "type": "uint256"
        },
        {
          "indexed": false,
          "internalType": "address",
          "name": "receiver",
          "type": "address"
        },
        {
          "indexed": false,
          "internalType": "uint256",
          "name": "amount",
          "type": "uint256"
        }
      ],
      "name": "NewLoan",
      "type": "event"
    },
    {
      "anonymous": false,
      "inputs": [
        {
          "indexed": true,
          "internalType": "address",
          "name": "previousOwner",
          "type": "address"
        },
        {
          "indexed": true,
          "internalType": "address",
          "name": "newOwner",
          "type": "address"
        }
      ],
      "name": "OwnershipTransferred",
      "type": "event"
    },
    {
      "anonymous": false,
      "inputs": [
        {
          "indexed": false,
          "internalType": "address",
          "name": "sender",
          "type": "address"
        },
        {
          "indexed": false,
          "internalType": "uint256",
          "name": "amount",
          "type": "uint256"
        }
      ],
      "name": "Rescued",
      "type": "event"
    },
    {
      "anonymous": false,
      "inputs": [
        {
          "indexed": false,
          "internalType": "address",
          "name": "token1",
          "type": "address"
        },
        {
          "indexed": false,
          "internalType": "address",
          "name": "token2",
          "type": "address"
        }
      ],
      "name": "SetTokenAddress",
      "type": "event"
    },
    {
      "inputs": [],
      "name": "WETH",
      "outputs": [
        {
          "internalType": "address",
          "name": "",
          "type": "address"
        }
      ],
      "stateMutability": "view",
      "type": "function"
    },
    {
      "inputs": [],
      "name": "baseInterestRate",
      "outputs": [
        {
          "internalType": "uint16",
          "name": "",
          "type": "uint16"
        }
      ],
      "stateMutability": "view",
      "type": "function"
    },
    {
      "inputs": [],
      "name": "baseLoanInterestRate",
      "outputs": [
        {
          "internalType": "uint16",
          "name": "",
          "type": "uint16"
        }
      ],
      "stateMutability": "view",
      "type": "function"
    },
    {
      "inputs": [
        {
          "internalType": "uint256",
          "name": "_id",
          "type": "uint256"
        }
      ],
      "name": "burnLoan",
      "outputs": [],
      "stateMutability": "nonpayable",
      "type": "function"
    },
    {
      "inputs": [
        {
          "internalType": "uint256",
          "name": "_locktime",
          "type": "uint256"
        },
        {
          "internalType": "uint256",
          "name": "_amountIn",
          "type": "uint256"
        },
        {
          "internalType": "uint256",
          "name": "_amountOut",
          "type": "uint256"
        },
        {
          "internalType": "address",
          "name": "_tokenIn",
          "type": "address"
        },
        {
          "internalType": "address",
          "name": "_tokenOut",
          "type": "address"
        }
      ],
      "name": "createLoan",
      "outputs": [],
      "stateMutability": "nonpayable",
      "type": "function"
    },
    {
      "inputs": [
        {
          "internalType": "uint256",
          "name": "_locktime",
          "type": "uint256"
        },
        {
          "internalType": "uint256",
          "name": "_amountIn",
          "type": "uint256"
        },
        {
          "internalType": "address",
          "name": "_token",
          "type": "address"
        },
        {
          "internalType": "address",
          "name": "_interestToken",
          "type": "address"
        }
      ],
      "name": "createSaving",
      "outputs": [],
      "stateMutability": "payable",
      "type": "function"
    },
    {
      "inputs": [
        {
          "internalType": "uint256",
          "name": "_amountIn",
          "type": "uint256"
        },
        {
          "internalType": "address",
          "name": "_tokenIn",
          "type": "address"
        },
        {
          "internalType": "address",
          "name": "_tokenOut",
          "type": "address"
        }
      ],
      "name": "estimateLoanAmount",
      "outputs": [
        {
          "internalType": "uint256",
          "name": "amountOut",
          "type": "uint256"
        }
      ],
      "stateMutability": "view",
      "type": "function"
    },
    {
      "inputs": [
        {
          "internalType": "uint16",
          "name": "_baseInterestRate",
          "type": "uint16"
        },
        {
          "internalType": "uint16",
          "name": "_baseLoanInterestRate",
          "type": "uint16"
        },
        {
          "internalType": "address",
          "name": "_router",
          "type": "address"
        },
        {
          "internalType": "address",
          "name": "_WETH",
          "type": "address"
        }
      ],
      "name": "initialize",
      "outputs": [],
      "stateMutability": "nonpayable",
      "type": "function"
    },
    {
      "inputs": [
        {
          "internalType": "uint256",
          "name": "",
          "type": "uint256"
        }
      ],
      "name": "loanTransactions",
      "outputs": [
        {
          "internalType": "uint256",
          "name": "lockTime",
          "type": "uint256"
        },
        {
          "internalType": "uint16",
          "name": "rate",
          "type": "uint16"
        },
        {
          "internalType": "uint256",
          "name": "loanTime",
          "type": "uint256"
        },
        {
          "internalType": "uint256",
          "name": "loanAmount",
          "type": "uint256"
        },
        {
          "internalType": "address",
          "name": "loanToken",
          "type": "address"
        },
        {
          "internalType": "uint256",
          "name": "mortgageAmount",
          "type": "uint256"
        },
        {
          "internalType": "address",
          "name": "mortgageToken",
          "type": "address"
        },
        {
          "internalType": "address",
          "name": "owner",
          "type": "address"
        }
      ],
      "stateMutability": "view",
      "type": "function"
    },
    {
      "inputs": [],
      "name": "mstMonthlyEmission",
      "outputs": [
        {
          "internalType": "uint256",
          "name": "",
          "type": "uint256"
        }
      ],
      "stateMutability": "view",
      "type": "function"
    },
    {
      "inputs": [],
      "name": "owner",
      "outputs": [
        {
          "internalType": "address",
          "name": "",
          "type": "address"
        }
      ],
      "stateMutability": "view",
      "type": "function"
    },
    {
      "inputs": [],
      "name": "pause",
      "outputs": [
        {
          "internalType": "bool",
          "name": "",
          "type": "bool"
        }
      ],
      "stateMutability": "view",
      "type": "function"
    },
    {
      "inputs": [
        {
          "internalType": "uint256",
          "name": "_id",
          "type": "uint256"
        },
        {
          "internalType": "uint256",
          "name": "_amountIn",
          "type": "uint256"
        },
        {
          "internalType": "address",
          "name": "_tokenOut",
          "type": "address"
        }
      ],
      "name": "payLoan",
      "outputs": [],
      "stateMutability": "nonpayable",
      "type": "function"
    },
    {
      "inputs": [],
      "name": "renounceOwnership",
      "outputs": [],
      "stateMutability": "nonpayable",
      "type": "function"
    },
    {
      "inputs": [],
      "name": "router",
      "outputs": [
        {
          "internalType": "address",
          "name": "",
          "type": "address"
        }
      ],
      "stateMutability": "view",
      "type": "function"
    },
    {
      "inputs": [
        {
          "internalType": "uint256",
          "name": "",
          "type": "uint256"
        }
      ],
      "name": "savingTransactions",
      "outputs": [
        {
          "internalType": "uint256",
          "name": "lockTime",
          "type": "uint256"
        },
        {
          "internalType": "uint16",
          "name": "rate",
          "type": "uint16"
        },
        {
          "internalType": "uint256",
          "name": "depositTime",
          "type": "uint256"
        },
        {
          "internalType": "uint256",
          "name": "amount",
          "type": "uint256"
        },
        {
          "internalType": "address",
          "name": "owner",
          "type": "address"
        },
        {
          "internalType": "address",
          "name": "tokenAddress",
          "type": "address"
        },
        {
          "internalType": "address",
          "name": "interestTokenAddress",
          "type": "address"
        }
      ],
      "stateMutability": "view",
      "type": "function"
    },
    {
      "inputs": [
        {
          "internalType": "address[]",
          "name": "_pathSwap",
          "type": "address[]"
        }
      ],
      "name": "setPathAddress",
      "outputs": [],
      "stateMutability": "nonpayable",
      "type": "function"
    },
    {
      "inputs": [
        {
          "internalType": "bool",
          "name": "_pause",
          "type": "bool"
        }
      ],
      "name": "setPause",
      "outputs": [],
      "stateMutability": "nonpayable",
      "type": "function"
    },
    {
      "inputs": [
        {
          "internalType": "address",
          "name": "_router",
          "type": "address"
        }
      ],
      "name": "setRouterAddress",
      "outputs": [],
      "stateMutability": "nonpayable",
      "type": "function"
    },
    {
      "inputs": [
        {
          "internalType": "address",
          "name": "newOwner",
          "type": "address"
        }
      ],
      "name": "transferOwnership",
      "outputs": [],
      "stateMutability": "nonpayable",
      "type": "function"
    },
    {
      "inputs": [
        {
          "internalType": "uint256",
          "name": "_amountOut",
          "type": "uint256"
        },
        {
          "internalType": "uint256",
          "name": "_savingId",
          "type": "uint256"
        }
      ],
      "name": "withdrawSaving",
      "outputs": [],
      "stateMutability": "nonpayable",
      "type": "function"
    }
  ],
  "bytecode": "0x608060405234801561001057600080fd5b50613763806100206000396000f3fe60806040526004361061016a5760003560e01c80638456cb59116100cb578063afd927621161007f578063c831929511610059578063c831929514610561578063f2fde38b14610581578063f887ea40146105a157600080fd5b8063afd9276214610456578063b8c84ba114610476578063bedb86fb1461054157600080fd5b8063950bc878116100b0578063950bc878146103f6578063a54ffc4c14610416578063ad5c46481461042957600080fd5b80638456cb59146103805780638da5cb5b146103aa57600080fd5b80634869dd43116101225780636675a176116101075780636675a1761461032b5780636e5a8b4b1461034b578063715018a61461036b57600080fd5b80634869dd431461021a5780635c9d91dc146102f657600080fd5b806321b6252f1161015357806321b6252f146101ba5780633fa8badd146101da57806341cb87fc146101fa57600080fd5b80630eac16b51461016f57806312028f5214610198575b600080fd5b34801561017b57600080fd5b5061018560985481565b6040519081526020015b60405180910390f35b3480156101a457600080fd5b506101b86101b336600461344c565b6105ce565b005b3480156101c657600080fd5b506101b86101d53660046132c6565b61074d565b3480156101e657600080fd5b506101b86101f536600461349f565b61084d565b34801561020657600080fd5b506101b86102153660046132ac565b6109bf565b34801561022657600080fd5b5061029961023536600461349f565b609f6020526000908152604090208054600182015460028301546003840154600485015460058601546006870154600790970154959661ffff909516959394929373ffffffffffffffffffffffffffffffffffffffff928316939192918216911688565b6040805198895261ffff909716602089015295870194909452606086019290925273ffffffffffffffffffffffffffffffffffffffff908116608086015260a085019190915290811660c08401521660e08201526101000161018f565b34801561030257600080fd5b50609754610318906301000000900461ffff1681565b60405161ffff909116815260200161018f565b34801561033757600080fd5b506101856103463660046134b7565b610b04565b34801561035757600080fd5b506101b86103663660046134f2565b610d94565b34801561037757600080fd5b506101b8611869565b34801561038c57600080fd5b5060975461039a9060ff1681565b604051901515815260200161018f565b3480156103b657600080fd5b5060335473ffffffffffffffffffffffffffffffffffffffff165b60405173ffffffffffffffffffffffffffffffffffffffff909116815260200161018f565b34801561040257600080fd5b506101b861041136600461356a565b6118f6565b6101b861042436600461353e565b611f0c565b34801561043557600080fd5b50609a546103d19073ffffffffffffffffffffffffffffffffffffffff1681565b34801561046257600080fd5b5060975461031890610100900461ffff1681565b34801561048257600080fd5b506104ed61049136600461349f565b609e602052600090815260409020805460018201546002830154600384015460048501546005860154600690960154949561ffff909416949293919273ffffffffffffffffffffffffffffffffffffffff918216928216911687565b6040805197885261ffff909616602088015294860193909352606085019190915273ffffffffffffffffffffffffffffffffffffffff908116608085015290811660a08401521660c082015260e00161018f565b34801561054d57600080fd5b506101b861055c366004613414565b612409565b34801561056d57600080fd5b506101b861057c366004613513565b6124bb565b34801561058d57600080fd5b506101b861059c3660046132ac565b612b75565b3480156105ad57600080fd5b506099546103d19073ffffffffffffffffffffffffffffffffffffffff1681565b60006105da6001612ca5565b9050801561060f57600080547fffffffffffffffffffffffffffffffffffffffffffffffffffffffffffff00ff166101001790555b610617612e30565b61061f612ec7565b610627612f66565b6097805461ffff8681166301000000027fffffffffffffffffffffffffffffffffffffffffffffffffffffff0000ffffff91891661010002919091167fffffffffffffffffffffffffffffffffffffffffffffffffffffff0000000000909216919091171790556099805473ffffffffffffffffffffffffffffffffffffffff8086167fffffffffffffffffffffffff000000000000000000000000000000000000000092831617909255609a805492851692909116919091179055801561074657600080547fffffffffffffffffffffffffffffffffffffffffffffffffffffffffffff00ff169055604051600181527f7f26b83ff96e1f2b6a682f133852f6798a09c465da95921460cefb38474024989060200160405180910390a15b5050505050565b60335473ffffffffffffffffffffffffffffffffffffffff1633146107d3576040517f08c379a000000000000000000000000000000000000000000000000000000000815260206004820181905260248201527f4f776e61626c653a2063616c6c6572206973206e6f7420746865206f776e657260448201526064015b60405180910390fd5b609b5461083c576040517f08c379a000000000000000000000000000000000000000000000000000000000815260206004820152600d60248201527f494e56414c49445f494e5055540000000000000000000000000000000000000060448201526064016107ca565b610848609b83836131d9565b505050565b600260655414156108ba576040517f08c379a000000000000000000000000000000000000000000000000000000000815260206004820152601f60248201527f5265656e7472616e637947756172643a207265656e7472616e742063616c6c0060448201526064016107ca565b600260655560975460ff161561092c576040517f08c379a000000000000000000000000000000000000000000000000000000000815260206004820152600660248201527f506175736564000000000000000000000000000000000000000000000000000060448201526064016107ca565b6000908152609f60209081526040918290208251610100810184528154815260018083015461ffff169382019390935260028201549381019390935260038101546060840152600481015473ffffffffffffffffffffffffffffffffffffffff9081166080850152600582015460a08501526006820154811660c08501526007909101541660e090920191909152606555565b60335473ffffffffffffffffffffffffffffffffffffffff163314610a40576040517f08c379a000000000000000000000000000000000000000000000000000000000815260206004820181905260248201527f4f776e61626c653a2063616c6c6572206973206e6f7420746865206f776e657260448201526064016107ca565b73ffffffffffffffffffffffffffffffffffffffff8116610abd576040517f08c379a000000000000000000000000000000000000000000000000000000000815260206004820152600d60248201527f494e56414c49445f494e5055540000000000000000000000000000000000000060448201526064016107ca565b609980547fffffffffffffffffffffffff00000000000000000000000000000000000000001673ffffffffffffffffffffffffffffffffffffffff92909216919091179055565b6000808411610b6f576040517f08c379a000000000000000000000000000000000000000000000000000000000815260206004820152601160248201527f494e56414c49445f414d4f554e545f494e00000000000000000000000000000060448201526064016107ca565b6040805160028082526060820183526000926020830190803683370190505090508381600081518110610bcb577f4e487b7100000000000000000000000000000000000000000000000000000000600052603260045260246000fd5b602002602001019073ffffffffffffffffffffffffffffffffffffffff16908173ffffffffffffffffffffffffffffffffffffffff16815250508281600181518110610c40577f4e487b7100000000000000000000000000000000000000000000000000000000600052603260045260246000fd5b73ffffffffffffffffffffffffffffffffffffffff92831660209182029290920101526099546040517fd06ca61f000000000000000000000000000000000000000000000000000000008152600092919091169063d06ca61f90610caa90899086906004016135b9565b60006040518083038186803b158015610cc257600080fd5b505afa158015610cd6573d6000803e3d6000fd5b505050506040513d6000823e601f3d9081017fffffffffffffffffffffffffffffffffffffffffffffffffffffffffffffffe0168201604052610d1c9190810190613336565b9050610d8a6064610d8460328460018651610d3791906136aa565b81518110610d6e577f4e487b7100000000000000000000000000000000000000000000000000000000600052603260045260246000fd5b602002602001015161300590919063ffffffff16565b90613018565b9695505050505050565b60026065541415610e01576040517f08c379a000000000000000000000000000000000000000000000000000000000815260206004820152601f60248201527f5265656e7472616e637947756172643a207265656e7472616e742063616c6c0060448201526064016107ca565b600260655560975460ff1615610e73576040517f08c379a000000000000000000000000000000000000000000000000000000000815260206004820152600660248201527f506175736564000000000000000000000000000000000000000000000000000060448201526064016107ca565b6000818152609e6020908152604091829020825160e08101845281548152600182015461ffff1692810192909252600281015492820192909252600382015460608201819052600483015473ffffffffffffffffffffffffffffffffffffffff90811660808401526005840154811660a084015260069093015490921660c082015290831115610f5f576040517f08c379a000000000000000000000000000000000000000000000000000000000815260206004820152600660248201527f414d4f554e54000000000000000000000000000000000000000000000000000060448201526064016107ca565b608081015173ffffffffffffffffffffffffffffffffffffffff163314610fe2576040517f08c379a000000000000000000000000000000000000000000000000000000000815260206004820152600560248201527f4f574e455200000000000000000000000000000000000000000000000000000060448201526064016107ca565b60408101518151610ff3919061361c565b42101561105c576040517f08c379a000000000000000000000000000000000000000000000000000000000815260206004820152600960248201527f4c4f434b2054494d45000000000000000000000000000000000000000000000060448201526064016107ca565b60006127106301e1338083604001514261107691906136aa565b846020015161ffff16856060015161108e919061366d565b611098919061366d565b6110a29190613634565b6110ac9190613634565b90508160a0015173ffffffffffffffffffffffffffffffffffffffff168260c0015173ffffffffffffffffffffffffffffffffffffffff1614611417576040805160028082526060820183526000926020830190803683370190505090508260a0015181600081518110611149577f4e487b7100000000000000000000000000000000000000000000000000000000600052603260045260246000fd5b602002602001019073ffffffffffffffffffffffffffffffffffffffff16908173ffffffffffffffffffffffffffffffffffffffff16815250508260c00151816001815181106111c2577f4e487b7100000000000000000000000000000000000000000000000000000000600052603260045260246000fd5b73ffffffffffffffffffffffffffffffffffffffff92831660209182029290920101526099546040517fd06ca61f000000000000000000000000000000000000000000000000000000008152600092919091169063d06ca61f9061122c90869086906004016135b9565b60006040518083038186803b15801561124457600080fd5b505afa158015611258573d6000803e3d6000fd5b505050506040513d6000823e601f3d9081017fffffffffffffffffffffffffffffffffffffffffffffffffffffffffffffffe016820160405261129e9190810190613336565b9050600081600183516112b191906136aa565b815181106112e8577f4e487b7100000000000000000000000000000000000000000000000000000000600052603260045260246000fd5b602090810291909101015160c08601516040517fa9059cbb0000000000000000000000000000000000000000000000000000000081523060048201526024810183905291925060009173ffffffffffffffffffffffffffffffffffffffff9091169063a9059cbb90604401602060405180830381600087803b15801561136d57600080fd5b505af1158015611381573d6000803e3d6000fd5b505050506040513d601f19601f820116820180604052508101906113a59190613430565b90508061140e576040517f08c379a000000000000000000000000000000000000000000000000000000000815260206004820152600860248201527f5452414e5346455200000000000000000000000000000000000000000000000060448201526064016107ca565b50505050611614565b609a5460a083015173ffffffffffffffffffffffffffffffffffffffff908116911614156114fc57604051600090339061753090849084818181858888f193505050503d8060008114611486576040519150601f19603f3d011682016040523d82523d6000602084013e61148b565b606091505b50509050806114f6576040517f08c379a000000000000000000000000000000000000000000000000000000000815260206004820152601860248201527f4661696c656420746f207472616e73666572204574686572000000000000000060448201526064016107ca565b50611614565b60c08201516040517fa9059cbb0000000000000000000000000000000000000000000000000000000081523060048201526024810183905260009173ffffffffffffffffffffffffffffffffffffffff169063a9059cbb90604401602060405180830381600087803b15801561157157600080fd5b505af1158015611585573d6000803e3d6000fd5b505050506040513d601f19601f820116820180604052508101906115a99190613430565b905080611612576040517f08c379a000000000000000000000000000000000000000000000000000000000815260206004820152600860248201527f5452414e5346455200000000000000000000000000000000000000000000000060448201526064016107ca565b505b831561185e576000838152609e60205260408120600301805486929061163b9084906136aa565b9091555050609a5460a083015173ffffffffffffffffffffffffffffffffffffffff9081169116141561172557604051600090339061753090879084818181858888f193505050503d80600081146116af576040519150601f19603f3d011682016040523d82523d6000602084013e6116b4565b606091505b505090508061171f576040517f08c379a000000000000000000000000000000000000000000000000000000000815260206004820152601860248201527f4661696c656420746f207472616e73666572204574686572000000000000000060448201526064016107ca565b5061185e565b60008260a0015173ffffffffffffffffffffffffffffffffffffffff1663a9059cbb61174e3390565b6040517fffffffff0000000000000000000000000000000000000000000000000000000060e084901b16815273ffffffffffffffffffffffffffffffffffffffff909116600482015260248101889052604401602060405180830381600087803b1580156117bb57600080fd5b505af11580156117cf573d6000803e3d6000fd5b505050506040513d601f19601f820116820180604052508101906117f39190613430565b90508061185c576040517f08c379a000000000000000000000000000000000000000000000000000000000815260206004820152600860248201527f5452414e5346455200000000000000000000000000000000000000000000000060448201526064016107ca565b505b505060016065555050565b60335473ffffffffffffffffffffffffffffffffffffffff1633146118ea576040517f08c379a000000000000000000000000000000000000000000000000000000000815260206004820181905260248201527f4f776e61626c653a2063616c6c6572206973206e6f7420746865206f776e657260448201526064016107ca565b6118f46000613024565b565b60026065541415611963576040517f08c379a000000000000000000000000000000000000000000000000000000000815260206004820152601f60248201527f5265656e7472616e637947756172643a207265656e7472616e742063616c6c0060448201526064016107ca565b600260655560975460ff16156119d5576040517f08c379a000000000000000000000000000000000000000000000000000000000815260206004820152600660248201527f506175736564000000000000000000000000000000000000000000000000000060448201526064016107ca565b609b54611a3e576040517f08c379a000000000000000000000000000000000000000000000000000000000815260206004820152600c60248201527f494e56414c49445f50415448000000000000000000000000000000000000000060448201526064016107ca565b60008311611aa8576040517f08c379a000000000000000000000000000000000000000000000000000000000815260206004820152601260248201527f494e56414c49445f414d4f554e545f4f5554000000000000000000000000000060448201526064016107ca565b6000611ab5858484610b04565b905080841115611b21576040517f08c379a000000000000000000000000000000000000000000000000000000000815260206004820152600e60248201527f4d41585f414d4f554e545f4f555400000000000000000000000000000000000060448201526064016107ca565b600073ffffffffffffffffffffffffffffffffffffffff84166323b872dd336040517fffffffff0000000000000000000000000000000000000000000000000000000060e084901b16815273ffffffffffffffffffffffffffffffffffffffff909116600482015230602482015260448101899052606401602060405180830381600087803b158015611bb357600080fd5b505af1158015611bc7573d6000803e3d6000fd5b505050506040513d601f19601f82011682018060405250810190611beb9190613430565b905080611c54576040517f08c379a000000000000000000000000000000000000000000000000000000000815260206004820152600b60248201527f5452414e534645525f494e00000000000000000000000000000000000000000060448201526064016107ca565b6040517fa9059cbb0000000000000000000000000000000000000000000000000000000081523060048201526024810186905260009073ffffffffffffffffffffffffffffffffffffffff85169063a9059cbb90604401602060405180830381600087803b158015611cc557600080fd5b505af1158015611cd9573d6000803e3d6000fd5b505050506040513d601f19601f82011682018060405250810190611cfd9190613430565b905080611d66576040517f08c379a000000000000000000000000000000000000000000000000000000000815260206004820152600c60248201527f5452414e534645525f4f5554000000000000000000000000000000000000000060448201526064016107ca565b60006040518061010001604052808a8152602001609760039054906101000a900461ffff1661ffff1681526020014281526020018881526020018673ffffffffffffffffffffffffffffffffffffffff1681526020018981526020018773ffffffffffffffffffffffffffffffffffffffff168152602001611de53390565b73ffffffffffffffffffffffffffffffffffffffff1681525090506001609d6000828254611e13919061361c565b9091555050609d546000908152609f60209081526040918290208351815590830151600180830180547fffffffffffffffffffffffffffffffffffffffffffffffffffffffffffff00001661ffff909316929092179091559183015160028201556060830151600382015560808301516004820180547fffffffffffffffffffffffff000000000000000000000000000000000000000090811673ffffffffffffffffffffffffffffffffffffffff9384161790915560a0850151600584015560c0850151600684018054831691841691909117905560e090940151600790920180549094169116179091556065555050505050505050565b60026065541415611f79576040517f08c379a000000000000000000000000000000000000000000000000000000000815260206004820152601f60248201527f5265656e7472616e637947756172643a207265656e7472616e742063616c6c0060448201526064016107ca565b600260655560975460ff1615611feb576040517f08c379a000000000000000000000000000000000000000000000000000000000815260206004820152600660248201527f506175736564000000000000000000000000000000000000000000000000000060448201526064016107ca565b60008311612055576040517f08c379a000000000000000000000000000000000000000000000000000000000815260206004820152601160248201527f494e56414c49445f414d4f554e545f494e00000000000000000000000000000060448201526064016107ca565b609a5473ffffffffffffffffffffffffffffffffffffffff838116911614156120e6578234146120e1576040517f08c379a000000000000000000000000000000000000000000000000000000000815260206004820152600e60248201527f494e56414c49445f414d4f554e5400000000000000000000000000000000000060448201526064016107ca565b61221b565b600073ffffffffffffffffffffffffffffffffffffffff83166323b872dd336040517fffffffff0000000000000000000000000000000000000000000000000000000060e084901b16815273ffffffffffffffffffffffffffffffffffffffff909116600482015230602482015260448101879052606401602060405180830381600087803b15801561217857600080fd5b505af115801561218c573d6000803e3d6000fd5b505050506040513d601f19601f820116820180604052508101906121b09190613430565b905080612219576040517f08c379a000000000000000000000000000000000000000000000000000000000815260206004820152600860248201527f5452414e5346455200000000000000000000000000000000000000000000000060448201526064016107ca565b505b60006040518060e00160405280868152602001609760019054906101000a900461ffff1661ffff16815260200142815260200185815260200161225b3390565b73ffffffffffffffffffffffffffffffffffffffff1681526020018473ffffffffffffffffffffffffffffffffffffffff1681526020018373ffffffffffffffffffffffffffffffffffffffff1681525090506001609d60008282546122c1919061361c565b9091555050609d80546000908152609e602090815260409182902084518155908401516001820180547fffffffffffffffffffffffffffffffffffffffffffffffffffffffffffff00001661ffff9092169190911790559083015160028201556060830151600382015560808301516004820180547fffffffffffffffffffffffff000000000000000000000000000000000000000090811673ffffffffffffffffffffffffffffffffffffffff9384161790915560a0850151600584018054831691841691909117905560c08501516006909301805490911692909116919091179055547f288317ae272ac4c1a937a87b807cc989f7120e0e04218171afd3ba86ca34ebc090336040805192835273ffffffffffffffffffffffffffffffffffffffff9091166020830152810186905260600160405180910390a150506001606555505050565b60335473ffffffffffffffffffffffffffffffffffffffff16331461248a576040517f08c379a000000000000000000000000000000000000000000000000000000000815260206004820181905260248201527f4f776e61626c653a2063616c6c6572206973206e6f7420746865206f776e657260448201526064016107ca565b609780547fffffffffffffffffffffffffffffffffffffffffffffffffffffffffffffff0016911515919091179055565b60026065541415612528576040517f08c379a000000000000000000000000000000000000000000000000000000000815260206004820152601f60248201527f5265656e7472616e637947756172643a207265656e7472616e742063616c6c0060448201526064016107ca565b600260655560975460ff161561259a576040517f08c379a000000000000000000000000000000000000000000000000000000000815260206004820152600660248201527f506175736564000000000000000000000000000000000000000000000000000060448201526064016107ca565b6000838152609f602090815260409182902082516101008101845281548152600182015461ffff169281019290925260028101549282019290925260038201546060820152600482015473ffffffffffffffffffffffffffffffffffffffff90811660808301819052600584015460a08401526006840154821660c0840152600790930154811660e0830152909190831614612692576040517f08c379a000000000000000000000000000000000000000000000000000000000815260206004820152600d60248201527f494e56414c49445f544f4b454e0000000000000000000000000000000000000060448201526064016107ca565b60006127106301e133808360400151426126ac91906136aa565b846020015161ffff1685606001516126c4919061366d565b6126ce919061366d565b6126d89190613634565b6126e29190613634565b9050831561286957600073ffffffffffffffffffffffffffffffffffffffff84166323b872dd336040517fffffffff0000000000000000000000000000000000000000000000000000000060e084901b16815273ffffffffffffffffffffffffffffffffffffffff909116600482015230602482015260448101889052606401602060405180830381600087803b15801561277c57600080fd5b505af1158015612790573d6000803e3d6000fd5b505050506040513d601f19601f820116820180604052508101906127b49190613430565b90508061281d576040517f08c379a000000000000000000000000000000000000000000000000000000000815260206004820152600b60248201527f5452414e534645525f494e00000000000000000000000000000000000000000060448201526064016107ca565b6000868152609f6020526040902060030154829061283c9087906136aa565b612846919061361c565b6000878152609f6020526040902060038101919091554260029091015550612b69565b6000826080015173ffffffffffffffffffffffffffffffffffffffff166323b872dd6128923390565b308587606001516128a3919061361c565b6040517fffffffff0000000000000000000000000000000000000000000000000000000060e086901b16815273ffffffffffffffffffffffffffffffffffffffff93841660048201529290911660248301526044820152606401602060405180830381600087803b15801561291757600080fd5b505af115801561292b573d6000803e3d6000fd5b505050506040513d601f19601f8201168201806040525081019061294f9190613430565b9050806129b8576040517f08c379a000000000000000000000000000000000000000000000000000000000815260206004820152600b60248201527f5452414e534645525f494e00000000000000000000000000000000000000000060448201526064016107ca565b60c083015160a08401516040517fa9059cbb000000000000000000000000000000000000000000000000000000008152306004820152602481019190915260009173ffffffffffffffffffffffffffffffffffffffff169063a9059cbb90604401602060405180830381600087803b158015612a3357600080fd5b505af1158015612a47573d6000803e3d6000fd5b505050506040513d601f19601f82011682018060405250810190612a6b9190613430565b905080612ad4576040517f08c379a000000000000000000000000000000000000000000000000000000000815260206004820152600c60248201527f5452414e534645525f4f5554000000000000000000000000000000000000000060448201526064016107ca565b50506000858152609f602052604081208181556001810180547fffffffffffffffffffffffffffffffffffffffffffffffffffffffffffff000016905560028101829055600381018290556004810180547fffffffffffffffffffffffff0000000000000000000000000000000000000000908116909155600582019290925560068101805483169055600701805490911690555b50506001606555505050565b60335473ffffffffffffffffffffffffffffffffffffffff163314612bf6576040517f08c379a000000000000000000000000000000000000000000000000000000000815260206004820181905260248201527f4f776e61626c653a2063616c6c6572206973206e6f7420746865206f776e657260448201526064016107ca565b73ffffffffffffffffffffffffffffffffffffffff8116612c99576040517f08c379a000000000000000000000000000000000000000000000000000000000815260206004820152602660248201527f4f776e61626c653a206e6577206f776e657220697320746865207a65726f206160448201527f646472657373000000000000000000000000000000000000000000000000000060648201526084016107ca565b612ca281613024565b50565b60008054610100900460ff1615612d5c578160ff166001148015612cc85750303b155b612d54576040517f08c379a000000000000000000000000000000000000000000000000000000000815260206004820152602e60248201527f496e697469616c697a61626c653a20636f6e747261637420697320616c72656160448201527f647920696e697469616c697a656400000000000000000000000000000000000060648201526084016107ca565b506000919050565b60005460ff808416911610612df3576040517f08c379a000000000000000000000000000000000000000000000000000000000815260206004820152602e60248201527f496e697469616c697a61626c653a20636f6e747261637420697320616c72656160448201527f647920696e697469616c697a656400000000000000000000000000000000000060648201526084016107ca565b50600080547fffffffffffffffffffffffffffffffffffffffffffffffffffffffffffffff001660ff92909216919091179055600190565b919050565b600054610100900460ff166118f4576040517f08c379a000000000000000000000000000000000000000000000000000000000815260206004820152602b60248201527f496e697469616c697a61626c653a20636f6e7472616374206973206e6f74206960448201527f6e697469616c697a696e6700000000000000000000000000000000000000000060648201526084016107ca565b600054610100900460ff16612f5e576040517f08c379a000000000000000000000000000000000000000000000000000000000815260206004820152602b60248201527f496e697469616c697a61626c653a20636f6e7472616374206973206e6f74206960448201527f6e697469616c697a696e6700000000000000000000000000000000000000000060648201526084016107ca565b6118f461309b565b600054610100900460ff16612ffd576040517f08c379a000000000000000000000000000000000000000000000000000000000815260206004820152602b60248201527f496e697469616c697a61626c653a20636f6e7472616374206973206e6f74206960448201527f6e697469616c697a696e6700000000000000000000000000000000000000000060648201526084016107ca565b6118f461313b565b6000613011828461366d565b9392505050565b60006130118284613634565b6033805473ffffffffffffffffffffffffffffffffffffffff8381167fffffffffffffffffffffffff0000000000000000000000000000000000000000831681179093556040519116919082907f8be0079c531659141344cd1fd0a4f28419497f9722a3daafe3b4186f6b6457e090600090a35050565b600054610100900460ff16613132576040517f08c379a000000000000000000000000000000000000000000000000000000000815260206004820152602b60248201527f496e697469616c697a61626c653a20636f6e7472616374206973206e6f74206960448201527f6e697469616c697a696e6700000000000000000000000000000000000000000060648201526084016107ca565b6118f433613024565b600054610100900460ff166131d2576040517f08c379a000000000000000000000000000000000000000000000000000000000815260206004820152602b60248201527f496e697469616c697a61626c653a20636f6e7472616374206973206e6f74206960448201527f6e697469616c697a696e6700000000000000000000000000000000000000000060648201526084016107ca565b6001606555565b828054828255906000526020600020908101928215613251579160200282015b828111156132515781547fffffffffffffffffffffffff00000000000000000000000000000000000000001673ffffffffffffffffffffffffffffffffffffffff8435161782556020909201916001909101906131f9565b5061325d929150613261565b5090565b5b8082111561325d5760008155600101613262565b803573ffffffffffffffffffffffffffffffffffffffff81168114612e2b57600080fd5b803561ffff81168114612e2b57600080fd5b6000602082840312156132bd578081fd5b61301182613276565b600080602083850312156132d8578081fd5b823567ffffffffffffffff808211156132ef578283fd5b818501915085601f830112613302578283fd5b813581811115613310578384fd5b8660208260051b8501011115613324578384fd5b60209290920196919550909350505050565b60006020808385031215613348578182fd5b825167ffffffffffffffff8082111561335f578384fd5b818501915085601f830112613372578384fd5b815181811115613384576133846136f0565b8060051b6040517fffffffffffffffffffffffffffffffffffffffffffffffffffffffffffffffe0603f830116810181811085821117156133c7576133c76136f0565b604052828152858101935084860182860187018a10156133e5578788fd5b8795505b838610156134075780518552600195909501949386019386016133e9565b5098975050505050505050565b600060208284031215613425578081fd5b81356130118161371f565b600060208284031215613441578081fd5b81516130118161371f565b60008060008060808587031215613461578182fd5b61346a8561329a565b93506134786020860161329a565b925061348660408601613276565b915061349460608601613276565b905092959194509250565b6000602082840312156134b0578081fd5b5035919050565b6000806000606084860312156134cb578283fd5b833592506134db60208501613276565b91506134e960408501613276565b90509250925092565b60008060408385031215613504578182fd5b50508035926020909101359150565b600080600060608486031215613527578283fd5b83359250602084013591506134e960408501613276565b60008060008060808587031215613553578384fd5b843593506020850135925061348660408601613276565b600080600080600060a08688031215613581578081fd5b85359450602086013593506040860135925061359f60608701613276565b91506135ad60808701613276565b90509295509295909350565b60006040820184835260206040818501528185518084526060860191508287019350845b8181101561360f57845173ffffffffffffffffffffffffffffffffffffffff16835293830193918301916001016135dd565b5090979650505050505050565b6000821982111561362f5761362f6136c1565b500190565b600082613668577f4e487b710000000000000000000000000000000000000000000000000000000081526012600452602481fd5b500490565b6000817fffffffffffffffffffffffffffffffffffffffffffffffffffffffffffffffff04831182151516156136a5576136a56136c1565b500290565b6000828210156136bc576136bc6136c1565b500390565b7f4e487b7100000000000000000000000000000000000000000000000000000000600052601160045260246000fd5b7f4e487b7100000000000000000000000000000000000000000000000000000000600052604160045260246000fd5b8015158114612ca257600080fdfea2646970667358221220122e133923dc2be7b811efcba9e17d091bc0581d26aefa9fc7f6d976078a810164736f6c63430008040033",
  "linkReferences": {},
  "deployedLinkReferences": {}
}