{
  "_format": "hh-sol-artifact-1",
  "contractName": "MoonToken",
  "sourceName": "contracts/Moon.sol",
  "abi": [
    {
      "inputs": [],
      "stateMutability": "nonpayable",
      "type": "constructor"
    },
    {
      "anonymous": false,
      "inputs": [
        {
          "indexed": true,
          "internalType": "address",
          "name": "owner",
          "type": "address"
        },
        {
          "indexed": true,
          "internalType": "address",
          "name": "spender",
          "type": "address"
        },
        {
          "indexed": false,
          "internalType": "uint256",
          "name": "value",
          "type": "uint256"
        }
      ],
      "name": "Approval",
      "type": "event"
    },
    {
      "anonymous": false,
      "inputs": [
        {
          "indexed": true,
          "internalType": "address",
          "name": "delegator",
          "type": "address"
        },
        {
          "indexed": true,
          "internalType": "address",
          "name": "fromDelegate",
          "type": "address"
        },
        {
          "indexed": true,
          "internalType": "address",
          "name": "toDelegate",
          "type": "address"
        }
      ],
      "name": "DelegateChanged",
      "type": "event"
    },
    {
      "anonymous": false,
      "inputs": [
        {
          "indexed": true,
          "internalType": "address",
          "name": "delegate",
          "type": "address"
        },
        {
          "indexed": false,
          "internalType": "uint256",
          "name": "previousBalance",
          "type": "uint256"
        },
        {
          "indexed": false,
          "internalType": "uint256",
          "name": "newBalance",
          "type": "uint256"
        }
      ],
      "name": "DelegateVotesChanged",
      "type": "event"
    },
    {
      "anonymous": false,
      "inputs": [
        {
          "indexed": true,
          "internalType": "address",
          "name": "previousOwner",
          "type": "address"
        },
        {
          "indexed": true,
          "internalType": "address",
          "name": "newOwner",
          "type": "address"
        }
      ],
      "name": "OwnershipTransferred",
      "type": "event"
    },
    {
      "anonymous": false,
      "inputs": [
        {
          "indexed": false,
          "internalType": "bool",
          "name": "IsAntiWhale",
          "type": "bool"
        }
      ],
      "name": "SetAntiWhale",
      "type": "event"
    },
    {
      "anonymous": false,
      "inputs": [
        {
          "indexed": false,
          "internalType": "uint256",
          "name": "antiWhaleStart",
          "type": "uint256"
        },
        {
          "indexed": false,
          "internalType": "uint256",
          "name": "AntiWhaleEnd",
          "type": "uint256"
        }
      ],
      "name": "SetAntiWhaleTime",
      "type": "event"
    },
    {
      "anonymous": false,
      "inputs": [
        {
          "indexed": false,
          "internalType": "address[]",
          "name": "_addrs",
          "type": "address[]"
        },
        {
          "indexed": false,
          "internalType": "bool",
          "name": "_isWL",
          "type": "bool"
        }
      ],
      "name": "SetBlacklists",
      "type": "event"
    },
    {
      "anonymous": false,
      "inputs": [
        {
          "indexed": false,
          "internalType": "address",
          "name": "LP",
          "type": "address"
        }
      ],
      "name": "SetLiquidPair",
      "type": "event"
    },
    {
      "anonymous": false,
      "inputs": [
        {
          "indexed": false,
          "internalType": "uint256",
          "name": "MaxBuy",
          "type": "uint256"
        }
      ],
      "name": "SetMaxBuy",
      "type": "event"
    },
    {
      "anonymous": false,
      "inputs": [
        {
          "indexed": false,
          "internalType": "uint256",
          "name": "MaxSell",
          "type": "uint256"
        }
      ],
      "name": "SetMaxSell",
      "type": "event"
    },
    {
      "anonymous": false,
      "inputs": [
        {
          "indexed": false,
          "internalType": "address[]",
          "name": "_addrs",
          "type": "address[]"
        },
        {
          "indexed": false,
          "internalType": "bool",
          "name": "_isWL",
          "type": "bool"
        }
      ],
      "name": "SetMinters",
      "type": "event"
    },
    {
      "anonymous": false,
      "inputs": [
        {
          "indexed": false,
          "internalType": "bool",
          "name": "isPause",
          "type": "bool"
        }
      ],
      "name": "SetPause",
      "type": "event"
    },
    {
      "anonymous": false,
      "inputs": [
        {
          "indexed": false,
          "internalType": "address",
          "name": "_addr",
          "type": "address"
        },
        {
          "indexed": false,
          "internalType": "bool",
          "name": "_isWL",
          "type": "bool"
        }
      ],
      "name": "SetWhitelist",
      "type": "event"
    },
    {
      "anonymous": false,
      "inputs": [
        {
          "indexed": false,
          "internalType": "address[]",
          "name": "_addrs",
          "type": "address[]"
        },
        {
          "indexed": false,
          "internalType": "bool",
          "name": "_isWL",
          "type": "bool"
        }
      ],
      "name": "SetWhitelists",
      "type": "event"
    },
    {
      "anonymous": false,
      "inputs": [
        {
          "indexed": true,
          "internalType": "address",
          "name": "from",
          "type": "address"
        },
        {
          "indexed": true,
          "internalType": "address",
          "name": "to",
          "type": "address"
        },
        {
          "indexed": false,
          "internalType": "uint256",
          "name": "value",
          "type": "uint256"
        }
      ],
      "name": "Transfer",
      "type": "event"
    },
    {
      "inputs": [],
      "name": "DELEGATION_TYPEHASH",
      "outputs": [
        {
          "internalType": "bytes32",
          "name": "",
          "type": "bytes32"
        }
      ],
      "stateMutability": "view",
      "type": "function"
    },
    {
      "inputs": [],
      "name": "DOMAIN_TYPEHASH",
      "outputs": [
        {
          "internalType": "bytes32",
          "name": "",
          "type": "bytes32"
        }
      ],
      "stateMutability": "view",
      "type": "function"
    },
    {
      "inputs": [
        {
          "internalType": "address",
          "name": "owner",
          "type": "address"
        },
        {
          "internalType": "address",
          "name": "spender",
          "type": "address"
        }
      ],
      "name": "allowance",
      "outputs": [
        {
          "internalType": "uint256",
          "name": "",
          "type": "uint256"
        }
      ],
      "stateMutability": "view",
      "type": "function"
    },
    {
      "inputs": [],
      "name": "antiWhaleEnd",
      "outputs": [
        {
          "internalType": "uint256",
          "name": "",
          "type": "uint256"
        }
      ],
      "stateMutability": "view",
      "type": "function"
    },
    {
      "inputs": [],
      "name": "antiWhaleStart",
      "outputs": [
        {
          "internalType": "uint256",
          "name": "",
          "type": "uint256"
        }
      ],
      "stateMutability": "view",
      "type": "function"
    },
    {
      "inputs": [
        {
          "internalType": "address",
          "name": "spender",
          "type": "address"
        },
        {
          "internalType": "uint256",
          "name": "amount",
          "type": "uint256"
        }
      ],
      "name": "approve",
      "outputs": [
        {
          "internalType": "bool",
          "name": "",
          "type": "bool"
        }
      ],
      "stateMutability": "nonpayable",
      "type": "function"
    },
    {
      "inputs": [
        {
          "internalType": "address",
          "name": "account",
          "type": "address"
        }
      ],
      "name": "balanceOf",
      "outputs": [
        {
          "internalType": "uint256",
          "name": "",
          "type": "uint256"
        }
      ],
      "stateMutability": "view",
      "type": "function"
    },
    {
      "inputs": [
        {
          "internalType": "address",
          "name": "",
          "type": "address"
        }
      ],
      "name": "blacklist",
      "outputs": [
        {
          "internalType": "bool",
          "name": "",
          "type": "bool"
        }
      ],
      "stateMutability": "view",
      "type": "function"
    },
    {
      "inputs": [
        {
          "internalType": "address",
          "name": "",
          "type": "address"
        },
        {
          "internalType": "uint32",
          "name": "",
          "type": "uint32"
        }
      ],
      "name": "checkpoints",
      "outputs": [
        {
          "internalType": "uint32",
          "name": "fromBlock",
          "type": "uint32"
        },
        {
          "internalType": "uint256",
          "name": "votes",
          "type": "uint256"
        }
      ],
      "stateMutability": "view",
      "type": "function"
    },
    {
      "inputs": [],
      "name": "decimals",
      "outputs": [
        {
          "internalType": "uint8",
          "name": "",
          "type": "uint8"
        }
      ],
      "stateMutability": "view",
      "type": "function"
    },
    {
      "inputs": [
        {
          "internalType": "address",
          "name": "spender",
          "type": "address"
        },
        {
          "internalType": "uint256",
          "name": "subtractedValue",
          "type": "uint256"
        }
      ],
      "name": "decreaseAllowance",
      "outputs": [
        {
          "internalType": "bool",
          "name": "",
          "type": "bool"
        }
      ],
      "stateMutability": "nonpayable",
      "type": "function"
    },
    {
      "inputs": [
        {
          "internalType": "address",
          "name": "delegatee",
          "type": "address"
        }
      ],
      "name": "delegate",
      "outputs": [],
      "stateMutability": "nonpayable",
      "type": "function"
    },
    {
      "inputs": [
        {
          "internalType": "address",
          "name": "delegatee",
          "type": "address"
        },
        {
          "internalType": "uint256",
          "name": "nonce",
          "type": "uint256"
        },
        {
          "internalType": "uint256",
          "name": "expiry",
          "type": "uint256"
        },
        {
          "internalType": "uint8",
          "name": "v",
          "type": "uint8"
        },
        {
          "internalType": "bytes32",
          "name": "r",
          "type": "bytes32"
        },
        {
          "internalType": "bytes32",
          "name": "s",
          "type": "bytes32"
        }
      ],
      "name": "delegateBySig",
      "outputs": [],
      "stateMutability": "nonpayable",
      "type": "function"
    },
    {
      "inputs": [
        {
          "internalType": "address",
          "name": "delegator",
          "type": "address"
        }
      ],
      "name": "delegates",
      "outputs": [
        {
          "internalType": "address",
          "name": "",
          "type": "address"
        }
      ],
      "stateMutability": "view",
      "type": "function"
    },
    {
      "inputs": [
        {
          "internalType": "address",
          "name": "account",
          "type": "address"
        }
      ],
      "name": "getCurrentVotes",
      "outputs": [
        {
          "internalType": "uint256",
          "name": "",
          "type": "uint256"
        }
      ],
      "stateMutability": "view",
      "type": "function"
    },
    {
      "inputs": [
        {
          "internalType": "address",
          "name": "account",
          "type": "address"
        },
        {
          "internalType": "uint256",
          "name": "blockNumber",
          "type": "uint256"
        }
      ],
      "name": "getPriorVotes",
      "outputs": [
        {
          "internalType": "uint256",
          "name": "",
          "type": "uint256"
        }
      ],
      "stateMutability": "view",
      "type": "function"
    },
    {
      "inputs": [
        {
          "internalType": "address",
          "name": "spender",
          "type": "address"
        },
        {
          "internalType": "uint256",
          "name": "addedValue",
          "type": "uint256"
        }
      ],
      "name": "increaseAllowance",
      "outputs": [
        {
          "internalType": "bool",
          "name": "",
          "type": "bool"
        }
      ],
      "stateMutability": "nonpayable",
      "type": "function"
    },
    {
      "inputs": [],
      "name": "isAntiWhale",
      "outputs": [
        {
          "internalType": "bool",
          "name": "",
          "type": "bool"
        }
      ],
      "stateMutability": "view",
      "type": "function"
    },
    {
      "inputs": [],
      "name": "maxBuy",
      "outputs": [
        {
          "internalType": "uint256",
          "name": "",
          "type": "uint256"
        }
      ],
      "stateMutability": "view",
      "type": "function"
    },
    {
      "inputs": [],
      "name": "maxSell",
      "outputs": [
        {
          "internalType": "uint256",
          "name": "",
          "type": "uint256"
        }
      ],
      "stateMutability": "view",
      "type": "function"
    },
    {
      "inputs": [],
      "name": "name",
      "outputs": [
        {
          "internalType": "string",
          "name": "",
          "type": "string"
        }
      ],
      "stateMutability": "view",
      "type": "function"
    },
    {
      "inputs": [
        {
          "internalType": "address",
          "name": "",
          "type": "address"
        }
      ],
      "name": "nonces",
      "outputs": [
        {
          "internalType": "uint256",
          "name": "",
          "type": "uint256"
        }
      ],
      "stateMutability": "view",
      "type": "function"
    },
    {
      "inputs": [
        {
          "internalType": "address",
          "name": "",
          "type": "address"
        }
      ],
      "name": "numCheckpoints",
      "outputs": [
        {
          "internalType": "uint32",
          "name": "",
          "type": "uint32"
        }
      ],
      "stateMutability": "view",
      "type": "function"
    },
    {
      "inputs": [],
      "name": "owner",
      "outputs": [
        {
          "internalType": "address",
          "name": "",
          "type": "address"
        }
      ],
      "stateMutability": "view",
      "type": "function"
    },
    {
      "inputs": [],
      "name": "pancakeLiquidPair",
      "outputs": [
        {
          "internalType": "address",
          "name": "",
          "type": "address"
        }
      ],
      "stateMutability": "view",
      "type": "function"
    },
    {
      "inputs": [],
      "name": "renounceOwnership",
      "outputs": [],
      "stateMutability": "nonpayable",
      "type": "function"
    },
    {
      "inputs": [
        {
          "internalType": "address",
          "name": "_token",
          "type": "address"
        }
      ],
      "name": "rescueStuckErc20",
      "outputs": [],
      "stateMutability": "nonpayable",
      "type": "function"
    },
    {
      "inputs": [
        {
          "internalType": "bool",
          "name": "_isAntiWhale",
          "type": "bool"
        }
      ],
      "name": "setAntiWhale",
      "outputs": [],
      "stateMutability": "nonpayable",
      "type": "function"
    },
    {
      "inputs": [
        {
          "internalType": "uint256",
          "name": "_antiWhaleStart",
          "type": "uint256"
        },
        {
          "internalType": "uint256",
          "name": "_antiWhaleEnd",
          "type": "uint256"
        }
      ],
      "name": "setAntiWhaleTime",
      "outputs": [],
      "stateMutability": "nonpayable",
      "type": "function"
    },
    {
      "inputs": [
        {
          "internalType": "address[]",
          "name": "_addrs",
          "type": "address[]"
        },
        {
          "internalType": "bool",
          "name": "_isBL",
          "type": "bool"
        }
      ],
      "name": "setBlacklists",
      "outputs": [],
      "stateMutability": "nonpayable",
      "type": "function"
    },
    {
      "inputs": [
        {
          "internalType": "address",
          "name": "_lp",
          "type": "address"
        }
      ],
      "name": "setLiquidPair",
      "outputs": [],
      "stateMutability": "nonpayable",
      "type": "function"
    },
    {
      "inputs": [
        {
          "internalType": "uint256",
          "name": "_maxBuy",
          "type": "uint256"
        }
      ],
      "name": "setMaxBuy",
      "outputs": [],
      "stateMutability": "nonpayable",
      "type": "function"
    },
    {
      "inputs": [
        {
          "internalType": "uint256",
          "name": "_maxSell",
          "type": "uint256"
        }
      ],
      "name": "setMaxSell",
      "outputs": [],
      "stateMutability": "nonpayable",
      "type": "function"
    },
    {
      "inputs": [
        {
          "internalType": "address",
          "name": "_addr",
          "type": "address"
        },
        {
          "internalType": "bool",
          "name": "_isWL",
          "type": "bool"
        }
      ],
      "name": "setWhitelist",
      "outputs": [],
      "stateMutability": "nonpayable",
      "type": "function"
    },
    {
      "inputs": [
        {
          "internalType": "address[]",
          "name": "_addrs",
          "type": "address[]"
        },
        {
          "internalType": "bool",
          "name": "_isWL",
          "type": "bool"
        }
      ],
      "name": "setWhitelists",
      "outputs": [],
      "stateMutability": "nonpayable",
      "type": "function"
    },
    {
      "inputs": [],
      "name": "symbol",
      "outputs": [
        {
          "internalType": "string",
          "name": "",
          "type": "string"
        }
      ],
      "stateMutability": "view",
      "type": "function"
    },
    {
      "inputs": [],
      "name": "totalSupply",
      "outputs": [
        {
          "internalType": "uint256",
          "name": "",
          "type": "uint256"
        }
      ],
      "stateMutability": "view",
      "type": "function"
    },
    {
      "inputs": [
        {
          "internalType": "address",
          "name": "recipient",
          "type": "address"
        },
        {
          "internalType": "uint256",
          "name": "amount",
          "type": "uint256"
        }
      ],
      "name": "transfer",
      "outputs": [
        {
          "internalType": "bool",
          "name": "",
          "type": "bool"
        }
      ],
      "stateMutability": "nonpayable",
      "type": "function"
    },
    {
      "inputs": [
        {
          "internalType": "address",
          "name": "sender",
          "type": "address"
        },
        {
          "internalType": "address",
          "name": "recipient",
          "type": "address"
        },
        {
          "internalType": "uint256",
          "name": "amount",
          "type": "uint256"
        }
      ],
      "name": "transferFrom",
      "outputs": [
        {
          "internalType": "bool",
          "name": "",
          "type": "bool"
        }
      ],
      "stateMutability": "nonpayable",
      "type": "function"
    },
    {
      "inputs": [
        {
          "internalType": "address",
          "name": "newOwner",
          "type": "address"
        }
      ],
      "name": "transferOwnership",
      "outputs": [],
      "stateMutability": "nonpayable",
      "type": "function"
    },
    {
      "inputs": [
        {
          "internalType": "address",
          "name": "",
          "type": "address"
        }
      ],
      "name": "whitelist",
      "outputs": [
        {
          "internalType": "bool",
          "name": "",
          "type": "bool"
        }
      ],
      "stateMutability": "view",
      "type": "function"
    }
  ],
  "bytecode": "0x6080604052620000126012600a6200097b565b6200002090610bb862000a49565b600b55620000316012600a6200097b565b6200003f90610bb862000a49565b600c553480156200004f57600080fd5b506040518060400160405280600a81526020016926b7b7b7102a37b5b2b760b11b8152506040518060400160405280600481526020016326a7a7a760e11b815250620000aa620000a46200011660201b60201c565b6200011a565b8151620000bf906004906020850190620007f0565b508051620000d5906005906020840190620007f0565b50505062000110620000ec6200011660201b60201c565b620000fa6012600a62000989565b6200010a906305f5e10062000a49565b6200016a565b62000b00565b3390565b600080546001600160a01b038381166001600160a01b0319831681178455604051919092169283917f8be0079c531659141344cd1fd0a4f28419497f9722a3daafe3b4186f6b6457e09190a35050565b6001600160a01b038216620001c65760405162461bcd60e51b815260206004820152601f60248201527f45524332303a206d696e7420746f20746865207a65726f20616464726573730060448201526064015b60405180910390fd5b620001d4600083836200026f565b8060036000828254620001e89190620008ec565b90915550506001600160a01b0382166000908152600160205260408120805483929062000217908490620008ec565b90915550506040518181526001600160a01b038316906000907fddf252ad1be2c89b69c2b068fc378daa952ba7f163c4a11628f55a4df523b3ef9060200160405180910390a36200026b60008383620002e4565b5050565b6001600160a01b03831660009081526011602052604090205460ff1615620002c65760405162461bcd60e51b815260206004820152600960248201526810931050d2d31254d560ba1b6044820152606401620001bd565b600a5460ff1615620002df57620002df83838362000318565b505050565b6001600160a01b03808416600090815260066020526040808220548584168352912054620002df9291821691168362000453565b600d544290811180156200032d5750600e5481105b80156200035357506001600160a01b03831660009081526010602052604090205460ff16155b15620003b357600f546001600160a01b0385811691161415620003b357600b54821115620003b35760405162461bcd60e51b815260206004820152600c60248201526b416e746920626f742062757960a01b6044820152606401620001bd565b80600d54108015620003c65750600e5481105b8015620003ec57506001600160a01b03841660009081526010602052604090205460ff16155b156200044d57600f546001600160a01b03848116911614156200044d57600c548211156200044d5760405162461bcd60e51b815260206004820152600d60248201526c105b9d1a48189bdd081cd95b1b609a1b6044820152606401620001bd565b50505050565b816001600160a01b0316836001600160a01b031614158015620004765750600081115b15620002df576001600160a01b0383161562000531576001600160a01b03831660009081526008602052604081205463ffffffff169081620004ba576000620004ff565b6001600160a01b038516600090815260076020526040812090620004e060018562000a85565b63ffffffff1663ffffffff168152602001908152602001600020600101545b905060006200051d8483620005ea60201b62001f071790919060201c565b90506200052d8684848462000601565b5050505b6001600160a01b03821615620002df576001600160a01b03821660009081526008602052604081205463ffffffff1690816200056f576000620005b4565b6001600160a01b0384166000908152600760205260408120906200059560018562000a85565b63ffffffff1663ffffffff168152602001908152602001600020600101545b90506000620005d28483620007af60201b62001f131790919060201c565b9050620005e28584848462000601565b505050505050565b6000620005f8828462000a6b565b90505b92915050565b6000620006284360405180606001604052806038815260200162003c1c60389139620007bd565b905060008463ffffffff161180156200068557506001600160a01b038516600090815260076020526040812063ffffffff8316916200066960018862000a85565b63ffffffff908116825260208201929092526040016000205416145b15620006d2576001600160a01b03851660009081526007602052604081208391620006b260018862000a85565b63ffffffff16815260208101919091526040016000206001015562000764565b60408051808201825263ffffffff838116825260208083018681526001600160a01b038a166000908152600783528581208a851682529092529390209151825463ffffffff1916911617815590516001918201556200073390859062000907565b6001600160a01b0386166000908152600860205260409020805463ffffffff191663ffffffff929092169190911790555b60408051848152602081018490526001600160a01b038716917fdec2bacdd2f05b59de34da9b523dff8be42e5e38e818c82fdb0bae774387a724910160405180910390a25050505050565b6000620005f88284620008ec565b6000816401000000008410620007e85760405162461bcd60e51b8152600401620001bd919062000896565b509192915050565b828054620007fe9062000aad565b90600052602060002090601f0160209004810192826200082257600085556200086d565b82601f106200083d57805160ff19168380011785556200086d565b828001600101855582156200086d579182015b828111156200086d57825182559160200191906001019062000850565b506200087b9291506200087f565b5090565b5b808211156200087b576000815560010162000880565b6000602080835283518082850152825b81811015620008c457858101830151858201604001528201620008a6565b81811115620008d65783604083870101525b50601f01601f1916929092016040019392505050565b6000821982111562000902576200090262000aea565b500190565b600063ffffffff80831681851680830382111562000929576200092962000aea565b01949350505050565b600181815b808511156200097357816000190482111562000957576200095762000aea565b808516156200096557918102915b93841c939080029062000937565b509250929050565b6000620005f8838362000995565b6000620005f860ff8416835b600082620009a657506001620005fb565b81620009b557506000620005fb565b8160018114620009ce5760028114620009d957620009f9565b6001915050620005fb565b60ff841115620009ed57620009ed62000aea565b50506001821b620005fb565b5060208310610133831016604e8410600b841016171562000a1e575081810a620005fb565b62000a2a838362000932565b806000190482111562000a415762000a4162000aea565b029392505050565b600081600019048311821515161562000a665762000a6662000aea565b500290565b60008282101562000a805762000a8062000aea565b500390565b600063ffffffff8381169083168181101562000aa55762000aa562000aea565b039392505050565b600181811c9082168062000ac257607f821691505b6020821081141562000ae457634e487b7160e01b600052602260045260246000fd5b50919050565b634e487b7160e01b600052601160045260246000fd5b61310c8062000b106000396000f3fe608060405234801561001057600080fd5b50600436106102d35760003560e01c806381ca7eba11610186578063b8eb3546116100e3578063ef998cf011610097578063f53bc83511610071578063f53bc835146106e8578063f9f92be4146106fb578063fe2da2371461071e57600080fd5b8063ef998cf01461066b578063f1127ed81461067e578063f2fde38b146106d557600080fd5b8063d9558b41116100c8578063d9558b41146105de578063dd62ed3e146105fe578063e7a324dc1461064457600080fd5b8063b8eb3546146105c2578063c3cda520146105cb57600080fd5b80639b19251a1161013a578063a457c2d71161011f578063a457c2d714610589578063a9059cbb1461059c578063b4b5ea57146105af57600080fd5b80639b19251a146105535780639d6927bf1461057657600080fd5b80638da5cb5b1161016b5780638da5cb5b146105205780639226de511461053e57806395d89b411461054b57600080fd5b806381ca7eba14610504578063836df2171461051757600080fd5b80634a5566bf1161023457806370a08231116101e8578063715018a6116101cd578063715018a6146104c9578063782d6fe1146104d15780637ecebe00146104e457600080fd5b806370a082311461048a57806370db69d6146104c057600080fd5b8063587cde1e11610219578063587cde1e146103de5780635c19a95c1461043c5780636fcfff451461044f57600080fd5b80634a5566bf146103b857806353d6fd59146103cb57600080fd5b806323b872dd1161028b57806337418eb61161027057806337418eb61461038957806339509351146103925780634880285d146103a557600080fd5b806323b872dd14610367578063313ce5671461037a57600080fd5b8063095ea7b3116102bc578063095ea7b31461030b57806318160ddd1461032e57806320606b701461034057600080fd5b806306dc16bc146102d857806306fdde03146102ed575b600080fd5b6102eb6102e6366004612df6565b610731565b005b6102f5610868565b6040516103029190612e7b565b60405180910390f35b61031e610319366004612c53565b6108fa565b6040519015158152602001610302565b6003545b604051908152602001610302565b6103327f8cad95687ba82c2ce50e74f7b754645e5117c3a5bec8151c0726d5857980a86681565b61031e610375366004612be2565b610911565b60405160128152602001610302565b610332600e5481565b61031e6103a0366004612c53565b6109f7565b6102eb6103b3366004612b96565b610a40565b6102eb6103c6366004612d8e565b610bb8565b6102eb6103d9366004612c1d565b610c98565b6104176103ec366004612b96565b73ffffffffffffffffffffffffffffffffffffffff9081166000908152600660205260409020541690565b60405173ffffffffffffffffffffffffffffffffffffffff9091168152602001610302565b6102eb61044a366004612b96565b610da0565b61047561045d366004612b96565b60086020526000908152604090205463ffffffff1681565b60405163ffffffff9091168152602001610302565b610332610498366004612b96565b73ffffffffffffffffffffffffffffffffffffffff1660009081526001602052604090205490565b610332600b5481565b6102eb610dad565b6103326104df366004612c53565b610e3a565b6103326104f2366004612b96565b60096020526000908152604090205481565b6102eb610512366004612b96565b61111d565b610332600d5481565b60005473ffffffffffffffffffffffffffffffffffffffff16610417565b600a5461031e9060ff1681565b6102f5611325565b61031e610561366004612b96565b60106020526000908152604090205460ff1681565b6102eb610584366004612d0d565b611334565b61031e610597366004612c53565b61152c565b61031e6105aa366004612c53565b611604565b6103326105bd366004612b96565b611611565b610332600c5481565b6102eb6105d9366004612c7c565b6116a0565b600f546104179073ffffffffffffffffffffffffffffffffffffffff1681565b61033261060c366004612bb0565b73ffffffffffffffffffffffffffffffffffffffff918216600090815260026020908152604080832093909416825291909152205490565b6103327fe48329057bfd03d55e49b547132e39cffd9c1820ad7b9d4c5307691425d15adf81565b6102eb610679366004612dc6565b611a83565b6106b961068c366004612cda565b60076020908152600092835260408084209091529082529020805460019091015463ffffffff9091169082565b6040805163ffffffff9093168352602083019190915201610302565b6102eb6106e3366004612b96565b611b39565b6102eb6106f6366004612dc6565b611c66565b61031e610709366004612b96565b60116020526000908152604090205460ff1681565b6102eb61072c366004612d0d565b611d1c565b60005473ffffffffffffffffffffffffffffffffffffffff1633146107b7576040517f08c379a000000000000000000000000000000000000000000000000000000000815260206004820181905260248201527f4f776e61626c653a2063616c6c6572206973206e6f7420746865206f776e657260448201526064015b60405180910390fd5b808210610820576040517f08c379a000000000000000000000000000000000000000000000000000000000815260206004820152600c60248201527f494e56414c49445f54494d45000000000000000000000000000000000000000060448201526064016107ae565b600d829055600e81905560408051838152602081018390527f2deca8fa334b9e9801a681f299b31cf24a5f9458c59903b63040f24dbd3fd35891015b60405180910390a15050565b60606004805461087790612fb0565b80601f01602080910402602001604051908101604052809291908181526020018280546108a390612fb0565b80156108f05780601f106108c5576101008083540402835291602001916108f0565b820191906000526020600020905b8154815290600101906020018083116108d357829003601f168201915b5050505050905090565b6000610907338484611f1f565b5060015b92915050565b600061091e8484846120d2565b73ffffffffffffffffffffffffffffffffffffffff84166000908152600260209081526040808320338452909152902054828110156109df576040517f08c379a000000000000000000000000000000000000000000000000000000000815260206004820152602860248201527f45524332303a207472616e7366657220616d6f756e742065786365656473206160448201527f6c6c6f77616e636500000000000000000000000000000000000000000000000060648201526084016107ae565b6109ec8533858403611f1f565b506001949350505050565b33600081815260026020908152604080832073ffffffffffffffffffffffffffffffffffffffff871684529091528120549091610907918590610a3b908690612eec565b611f1f565b60005473ffffffffffffffffffffffffffffffffffffffff163314610ac1576040517f08c379a000000000000000000000000000000000000000000000000000000000815260206004820181905260248201527f4f776e61626c653a2063616c6c6572206973206e6f7420746865206f776e657260448201526064016107ae565b73ffffffffffffffffffffffffffffffffffffffff8116610b3e576040517f08c379a000000000000000000000000000000000000000000000000000000000815260206004820152601060248201527f5f6c70207a65726f20616464726573730000000000000000000000000000000060448201526064016107ae565b600f80547fffffffffffffffffffffffff00000000000000000000000000000000000000001673ffffffffffffffffffffffffffffffffffffffff83169081179091556040519081527fc354ca6d6d524069f658143bd975037e4d035b6388cbcb18384083890b5e699e906020015b60405180910390a150565b60005473ffffffffffffffffffffffffffffffffffffffff163314610c39576040517f08c379a000000000000000000000000000000000000000000000000000000000815260206004820181905260248201527f4f776e61626c653a2063616c6c6572206973206e6f7420746865206f776e657260448201526064016107ae565b600a80547fffffffffffffffffffffffffffffffffffffffffffffffffffffffffffffff00168215159081179091556040519081527fbd3dd126815bd8f776ec324b02ef6836864d522cab5fadc9e22e27d7a454aa8690602001610bad565b60005473ffffffffffffffffffffffffffffffffffffffff163314610d19576040517f08c379a000000000000000000000000000000000000000000000000000000000815260206004820181905260248201527f4f776e61626c653a2063616c6c6572206973206e6f7420746865206f776e657260448201526064016107ae565b73ffffffffffffffffffffffffffffffffffffffff821660008181526010602090815260409182902080547fffffffffffffffffffffffffffffffffffffffffffffffffffffffffffffff00168515159081179091558251938452908301527ff6019ec0a78d156d249a1ec7579e2321f6ac7521d6e1d2eacf90ba4a184dcceb910161085c565b610daa338261239c565b50565b60005473ffffffffffffffffffffffffffffffffffffffff163314610e2e576040517f08c379a000000000000000000000000000000000000000000000000000000000815260206004820181905260248201527f4f776e61626c653a2063616c6c6572206973206e6f7420746865206f776e657260448201526064016107ae565b610e38600061243b565b565b6000438210610ecb576040517f08c379a000000000000000000000000000000000000000000000000000000000815260206004820152602b60248201527f425343546f6b656e3a3a6765745072696f72566f7465733a206e6f742079657460448201527f2064657465726d696e656400000000000000000000000000000000000000000060648201526084016107ae565b73ffffffffffffffffffffffffffffffffffffffff831660009081526008602052604090205463ffffffff1680610f0657600091505061090b565b73ffffffffffffffffffffffffffffffffffffffff841660009081526007602052604081208491610f38600185612f8b565b63ffffffff90811682526020820192909252604001600020541611610fae5773ffffffffffffffffffffffffffffffffffffffff8416600090815260076020526040812090610f88600184612f8b565b63ffffffff1663ffffffff1681526020019081526020016000206001015491505061090b565b73ffffffffffffffffffffffffffffffffffffffff8416600090815260076020908152604080832083805290915290205463ffffffff16831015610ff657600091505061090b565b600080611004600184612f8b565b90505b8163ffffffff168163ffffffff1611156110d957600060026110298484612f8b565b6110339190612f2c565b61103d9083612f8b565b73ffffffffffffffffffffffffffffffffffffffff8816600090815260076020908152604080832063ffffffff80861685529083529281902081518083019092528054909316808252600190930154918101919091529192508714156110ad5760200151945061090b9350505050565b805163ffffffff168711156110c4578193506110d2565b6110cf600183612f8b565b92505b5050611007565b5073ffffffffffffffffffffffffffffffffffffffff8516600090815260076020908152604080832063ffffffff9094168352929052206001015491505092915050565b60005473ffffffffffffffffffffffffffffffffffffffff16331461119e576040517f08c379a000000000000000000000000000000000000000000000000000000000815260206004820181905260248201527f4f776e61626c653a2063616c6c6572206973206e6f7420746865206f776e657260448201526064016107ae565b6040517f70a0823100000000000000000000000000000000000000000000000000000000815230600482015260009073ffffffffffffffffffffffffffffffffffffffff8316906370a082319060240160206040518083038186803b15801561120657600080fd5b505afa15801561121a573d6000803e3d6000fd5b505050506040513d601f19601f8201168201806040525081019061123e9190612dde565b90508173ffffffffffffffffffffffffffffffffffffffff1663a9059cbb61127b60005473ffffffffffffffffffffffffffffffffffffffff1690565b6040517fffffffff0000000000000000000000000000000000000000000000000000000060e084901b16815273ffffffffffffffffffffffffffffffffffffffff909116600482015260248101849052604401602060405180830381600087803b1580156112e857600080fd5b505af11580156112fc573d6000803e3d6000fd5b505050506040513d601f19601f820116820180604052508101906113209190612daa565b505050565b60606005805461087790612fb0565b60005473ffffffffffffffffffffffffffffffffffffffff1633146113b5576040517f08c379a000000000000000000000000000000000000000000000000000000000815260206004820181905260248201527f4f776e61626c653a2063616c6c6572206973206e6f7420746865206f776e657260448201526064016107ae565b8161141c576040517f08c379a000000000000000000000000000000000000000000000000000000000815260206004820152600f60248201527f494e56414c49445f41444452455353000000000000000000000000000000000060448201526064016107ae565b60005b63ffffffff81168311156114eb57816010600086868563ffffffff16818110611471577f4e487b7100000000000000000000000000000000000000000000000000000000600052603260045260246000fd5b90506020020160208101906114869190612b96565b73ffffffffffffffffffffffffffffffffffffffff168152602081019190915260400160002080547fffffffffffffffffffffffffffffffffffffffffffffffffffffffffffffff0016911515919091179055806114e38161303d565b91505061141f565b507f0677e3b80db07c1ee3b88c1c79c10e6223a3ca504fc0e447a4bd568ec102c20c83838360405161151f93929190612e17565b60405180910390a1505050565b33600090815260026020908152604080832073ffffffffffffffffffffffffffffffffffffffff86168452909152812054828110156115ed576040517f08c379a000000000000000000000000000000000000000000000000000000000815260206004820152602560248201527f45524332303a2064656372656173656420616c6c6f77616e63652062656c6f7760448201527f207a65726f00000000000000000000000000000000000000000000000000000060648201526084016107ae565b6115fa3385858403611f1f565b5060019392505050565b60006109073384846120d2565b73ffffffffffffffffffffffffffffffffffffffff811660009081526008602052604081205463ffffffff1680611649576000611699565b73ffffffffffffffffffffffffffffffffffffffff831660009081526007602052604081209061167a600184612f8b565b63ffffffff1663ffffffff168152602001908152602001600020600101545b9392505050565b60007f8cad95687ba82c2ce50e74f7b754645e5117c3a5bec8151c0726d5857980a8666116cb610868565b805190602001206116d94690565b60408051602080820195909552808201939093526060830191909152306080808401919091528151808403909101815260a0830182528051908401207fe48329057bfd03d55e49b547132e39cffd9c1820ad7b9d4c5307691425d15adf60c084015273ffffffffffffffffffffffffffffffffffffffff8b1660e084015261010083018a90526101208084018a9052825180850390910181526101408401909252815191909301207f1901000000000000000000000000000000000000000000000000000000000000610160830152610162820183905261018282018190529192506000906101a201604080517fffffffffffffffffffffffffffffffffffffffffffffffffffffffffffffffe08184030181528282528051602091820120600080855291840180845281905260ff8a169284019290925260608301889052608083018790529092509060019060a0016020604051602081039080840390855afa15801561184b573d6000803e3d6000fd5b50506040517fffffffffffffffffffffffffffffffffffffffffffffffffffffffffffffffe0015191505073ffffffffffffffffffffffffffffffffffffffff8116611919576040517f08c379a000000000000000000000000000000000000000000000000000000000815260206004820152602a60248201527f425343546f6b656e3a3a64656c656761746542795369673a20696e76616c696460448201527f207369676e61747572650000000000000000000000000000000000000000000060648201526084016107ae565b73ffffffffffffffffffffffffffffffffffffffff8116600090815260096020526040812080549161194a83613004565b9190505589146119dc576040517f08c379a000000000000000000000000000000000000000000000000000000000815260206004820152602660248201527f425343546f6b656e3a3a64656c656761746542795369673a20696e76616c696460448201527f206e6f6e6365000000000000000000000000000000000000000000000000000060648201526084016107ae565b87421115611a6c576040517f08c379a000000000000000000000000000000000000000000000000000000000815260206004820152602a60248201527f425343546f6b656e3a3a64656c656761746542795369673a207369676e61747560448201527f726520657870697265640000000000000000000000000000000000000000000060648201526084016107ae565b611a76818b61239c565b505050505b505050505050565b60005473ffffffffffffffffffffffffffffffffffffffff163314611b04576040517f08c379a000000000000000000000000000000000000000000000000000000000815260206004820181905260248201527f4f776e61626c653a2063616c6c6572206973206e6f7420746865206f776e657260448201526064016107ae565b600c8190556040518181527f3c0ac525ebd597ae4e1201e687d8a7424b740a53b775b1527eb1c1936c1bd3b790602001610bad565b60005473ffffffffffffffffffffffffffffffffffffffff163314611bba576040517f08c379a000000000000000000000000000000000000000000000000000000000815260206004820181905260248201527f4f776e61626c653a2063616c6c6572206973206e6f7420746865206f776e657260448201526064016107ae565b73ffffffffffffffffffffffffffffffffffffffff8116611c5d576040517f08c379a000000000000000000000000000000000000000000000000000000000815260206004820152602660248201527f4f776e61626c653a206e6577206f776e657220697320746865207a65726f206160448201527f646472657373000000000000000000000000000000000000000000000000000060648201526084016107ae565b610daa8161243b565b60005473ffffffffffffffffffffffffffffffffffffffff163314611ce7576040517f08c379a000000000000000000000000000000000000000000000000000000000815260206004820181905260248201527f4f776e61626c653a2063616c6c6572206973206e6f7420746865206f776e657260448201526064016107ae565b600b8190556040518181527f16fd9174d80e7089ed0c10c47c8079476be2ec28b97c4b40846cffd8a7aa9e9f90602001610bad565b60005473ffffffffffffffffffffffffffffffffffffffff163314611d9d576040517f08c379a000000000000000000000000000000000000000000000000000000000815260206004820181905260248201527f4f776e61626c653a2063616c6c6572206973206e6f7420746865206f776e657260448201526064016107ae565b81611e04576040517f08c379a000000000000000000000000000000000000000000000000000000000815260206004820152600f60248201527f494e56414c49445f41444452455353000000000000000000000000000000000060448201526064016107ae565b60005b63ffffffff8116831115611ed357816011600086868563ffffffff16818110611e59577f4e487b7100000000000000000000000000000000000000000000000000000000600052603260045260246000fd5b9050602002016020810190611e6e9190612b96565b73ffffffffffffffffffffffffffffffffffffffff168152602081019190915260400160002080547fffffffffffffffffffffffffffffffffffffffffffffffffffffffffffffff001691151591909117905580611ecb8161303d565b915050611e07565b507f2f0d75242c5223d31cb0ba5adfccf0c6a044c6aba42c53cea60e0a2ee9b0fabb83838360405161151f93929190612e17565b60006116998284612f74565b60006116998284612eec565b73ffffffffffffffffffffffffffffffffffffffff8316611fc1576040517f08c379a0000000000000000000000000000000000000000000000000000000008152602060048201526024808201527f45524332303a20617070726f76652066726f6d20746865207a65726f2061646460448201527f726573730000000000000000000000000000000000000000000000000000000060648201526084016107ae565b73ffffffffffffffffffffffffffffffffffffffff8216612064576040517f08c379a000000000000000000000000000000000000000000000000000000000815260206004820152602260248201527f45524332303a20617070726f766520746f20746865207a65726f20616464726560448201527f737300000000000000000000000000000000000000000000000000000000000060648201526084016107ae565b73ffffffffffffffffffffffffffffffffffffffff83811660008181526002602090815260408083209487168084529482529182902085905590518481527f8c5be1e5ebec7d5bd14f71427d1e84f3dd0314c0f7b2291e5b200ac8c7c3b925910160405180910390a3505050565b73ffffffffffffffffffffffffffffffffffffffff8316612175576040517f08c379a000000000000000000000000000000000000000000000000000000000815260206004820152602560248201527f45524332303a207472616e736665722066726f6d20746865207a65726f20616460448201527f647265737300000000000000000000000000000000000000000000000000000060648201526084016107ae565b73ffffffffffffffffffffffffffffffffffffffff8216612218576040517f08c379a000000000000000000000000000000000000000000000000000000000815260206004820152602360248201527f45524332303a207472616e7366657220746f20746865207a65726f206164647260448201527f657373000000000000000000000000000000000000000000000000000000000060648201526084016107ae565b6122238383836124b0565b73ffffffffffffffffffffffffffffffffffffffff8316600090815260016020526040902054818110156122d9576040517f08c379a000000000000000000000000000000000000000000000000000000000815260206004820152602660248201527f45524332303a207472616e7366657220616d6f756e742065786365656473206260448201527f616c616e6365000000000000000000000000000000000000000000000000000060648201526084016107ae565b73ffffffffffffffffffffffffffffffffffffffff80851660009081526001602052604080822085850390559185168152908120805484929061231d908490612eec565b925050819055508273ffffffffffffffffffffffffffffffffffffffff168473ffffffffffffffffffffffffffffffffffffffff167fddf252ad1be2c89b69c2b068fc378daa952ba7f163c4a11628f55a4df523b3ef8460405161238391815260200190565b60405180910390a3612396848484612556565b50505050565b73ffffffffffffffffffffffffffffffffffffffff828116600081815260066020818152604080842080546001845282862054949093528787167fffffffffffffffffffffffff00000000000000000000000000000000000000008416811790915590519190951694919391928592917f3134e8a2e6d97e929a7e54011ea5485d7d196dd5f0ba4d4ef95803e8e3fc257f9190a4612396828483612591565b6000805473ffffffffffffffffffffffffffffffffffffffff8381167fffffffffffffffffffffffff0000000000000000000000000000000000000000831681178455604051919092169283917f8be0079c531659141344cd1fd0a4f28419497f9722a3daafe3b4186f6b6457e09190a35050565b73ffffffffffffffffffffffffffffffffffffffff831660009081526011602052604090205460ff1615612540576040517f08c379a000000000000000000000000000000000000000000000000000000000815260206004820152600960248201527f424c41434b4c495354000000000000000000000000000000000000000000000060448201526064016107ae565b600a5460ff161561132057611320838383612758565b73ffffffffffffffffffffffffffffffffffffffff808416600090815260066020526040808220548584168352912054611320929182169116835b8173ffffffffffffffffffffffffffffffffffffffff168373ffffffffffffffffffffffffffffffffffffffff16141580156125cd5750600081115b156113205773ffffffffffffffffffffffffffffffffffffffff8316156126975773ffffffffffffffffffffffffffffffffffffffff831660009081526008602052604081205463ffffffff169081612627576000612677565b73ffffffffffffffffffffffffffffffffffffffff8516600090815260076020526040812090612658600185612f8b565b63ffffffff1663ffffffff168152602001908152602001600020600101545b905060006126858285611f07565b90506126938684848461290a565b5050505b73ffffffffffffffffffffffffffffffffffffffff8216156113205773ffffffffffffffffffffffffffffffffffffffff821660009081526008602052604081205463ffffffff1690816126ec57600061273c565b73ffffffffffffffffffffffffffffffffffffffff841660009081526007602052604081209061271d600185612f8b565b63ffffffff1663ffffffff168152602001908152602001600020600101545b9050600061274a8285611f13565b9050611a7b8584848461290a565b600d5442908111801561276c5750600e5481105b801561279e575073ffffffffffffffffffffffffffffffffffffffff831660009081526010602052604090205460ff16155b1561283257600f5473ffffffffffffffffffffffffffffffffffffffff8581169116141561283257600b54821115612832576040517f08c379a000000000000000000000000000000000000000000000000000000000815260206004820152600c60248201527f416e746920626f7420627579000000000000000000000000000000000000000060448201526064016107ae565b80600d541080156128445750600e5481105b8015612876575073ffffffffffffffffffffffffffffffffffffffff841660009081526010602052604090205460ff16155b1561239657600f5473ffffffffffffffffffffffffffffffffffffffff8481169116141561239657600c54821115612396576040517f08c379a000000000000000000000000000000000000000000000000000000000815260206004820152600d60248201527f416e746920626f742073656c6c0000000000000000000000000000000000000060448201526064016107ae565b600061292e4360405180606001604052806038815260200161309f60389139612b23565b905060008463ffffffff16118015612995575073ffffffffffffffffffffffffffffffffffffffff8516600090815260076020526040812063ffffffff831691612979600188612f8b565b63ffffffff908116825260208201929092526040016000205416145b156129eb5773ffffffffffffffffffffffffffffffffffffffff8516600090815260076020526040812083916129cc600188612f8b565b63ffffffff168152602081019190915260400160002060010155612acb565b60408051808201825263ffffffff8381168252602080830186815273ffffffffffffffffffffffffffffffffffffffff8a166000908152600783528581208a85168252909252939020915182547fffffffffffffffffffffffffffffffffffffffffffffffffffffffff000000001691161781559051600191820155612a72908590612f04565b73ffffffffffffffffffffffffffffffffffffffff8616600090815260086020526040902080547fffffffffffffffffffffffffffffffffffffffffffffffffffffffff000000001663ffffffff929092169190911790555b604080518481526020810184905273ffffffffffffffffffffffffffffffffffffffff8716917fdec2bacdd2f05b59de34da9b523dff8be42e5e38e818c82fdb0bae774387a724910160405180910390a25050505050565b6000816401000000008410612b65576040517f08c379a00000000000000000000000000000000000000000000000000000000081526004016107ae9190612e7b565b509192915050565b803573ffffffffffffffffffffffffffffffffffffffff81168114612b9157600080fd5b919050565b600060208284031215612ba7578081fd5b61169982612b6d565b60008060408385031215612bc2578081fd5b612bcb83612b6d565b9150612bd960208401612b6d565b90509250929050565b600080600060608486031215612bf6578081fd5b612bff84612b6d565b9250612c0d60208501612b6d565b9150604084013590509250925092565b60008060408385031215612c2f578182fd5b612c3883612b6d565b91506020830135612c4881613090565b809150509250929050565b60008060408385031215612c65578182fd5b612c6e83612b6d565b946020939093013593505050565b60008060008060008060c08789031215612c94578182fd5b612c9d87612b6d565b95506020870135945060408701359350606087013560ff81168114612cc0578283fd5b9598949750929560808101359460a0909101359350915050565b60008060408385031215612cec578182fd5b612cf583612b6d565b9150602083013563ffffffff81168114612c48578182fd5b600080600060408486031215612d21578283fd5b833567ffffffffffffffff80821115612d38578485fd5b818601915086601f830112612d4b578485fd5b813581811115612d59578586fd5b8760208260051b8501011115612d6d578586fd5b60209283019550935050840135612d8381613090565b809150509250925092565b600060208284031215612d9f578081fd5b813561169981613090565b600060208284031215612dbb578081fd5b815161169981613090565b600060208284031215612dd7578081fd5b5035919050565b600060208284031215612def578081fd5b5051919050565b60008060408385031215612e08578182fd5b50508035926020909101359150565b6040808252810183905260008460608301825b86811015612e655773ffffffffffffffffffffffffffffffffffffffff612e5084612b6d565b16825260209283019290910190600101612e2a565b5080925050508215156020830152949350505050565b6000602080835283518082850152825b81811015612ea757858101830151858201604001528201612e8b565b81811115612eb85783604083870101525b50601f017fffffffffffffffffffffffffffffffffffffffffffffffffffffffffffffffe016929092016040019392505050565b60008219821115612eff57612eff613061565b500190565b600063ffffffff808316818516808303821115612f2357612f23613061565b01949350505050565b600063ffffffff80841680612f68577f4e487b710000000000000000000000000000000000000000000000000000000083526012600452602483fd5b92169190910492915050565b600082821015612f8657612f86613061565b500390565b600063ffffffff83811690831681811015612fa857612fa8613061565b039392505050565b600181811c90821680612fc457607f821691505b60208210811415612ffe577f4e487b7100000000000000000000000000000000000000000000000000000000600052602260045260246000fd5b50919050565b60007fffffffffffffffffffffffffffffffffffffffffffffffffffffffffffffffff82141561303657613036613061565b5060010190565b600063ffffffff8083168181141561305757613057613061565b6001019392505050565b7f4e487b7100000000000000000000000000000000000000000000000000000000600052601160045260246000fd5b8015158114610daa57600080fdfe425343546f6b656e3a3a5f7772697465436865636b706f696e743a20626c6f636b206e756d62657220657863656564732033322062697473a264697066735822122004957ec45375a6c1bf3fe9712864259e195f1ee3d5beb9f3526325c96966004064736f6c63430008040033425343546f6b656e3a3a5f7772697465436865636b706f696e743a20626c6f636b206e756d62657220657863656564732033322062697473",
  "linkReferences": {},
  "deployedLinkReferences": {}
}